{
  "_format": "hh-sol-artifact-1",
  "contractName": "MyEpicGame",
  "sourceName": "contracts/MyEpicGame.sol",
  "abi": [
    {
      "inputs": [
        {
          "internalType": "string[]",
          "name": "characterNames",
          "type": "string[]"
        },
        {
          "internalType": "string[]",
          "name": "characterImageURIs",
          "type": "string[]"
        },
        {
          "internalType": "uint256[]",
          "name": "characterHp",
          "type": "uint256[]"
        },
        {
          "internalType": "uint256[]",
          "name": "characterAttackDmg",
          "type": "uint256[]"
        },
        {
          "internalType": "string",
          "name": "bossName",
          "type": "string"
        },
        {
          "internalType": "string",
          "name": "bossImageURI",
          "type": "string"
        },
        {
          "internalType": "uint256",
          "name": "bossHp",
          "type": "uint256"
        },
        {
          "internalType": "uint256",
          "name": "bossAttackDamage",
          "type": "uint256"
        }
      ],
      "stateMutability": "nonpayable",
      "type": "constructor"
    },
    {
      "anonymous": false,
      "inputs": [
        {
          "indexed": true,
          "internalType": "address",
          "name": "owner",
          "type": "address"
        },
        {
          "indexed": true,
          "internalType": "address",
          "name": "approved",
          "type": "address"
        },
        {
          "indexed": true,
          "internalType": "uint256",
          "name": "tokenId",
          "type": "uint256"
        }
      ],
      "name": "Approval",
      "type": "event"
    },
    {
      "anonymous": false,
      "inputs": [
        {
          "indexed": true,
          "internalType": "address",
          "name": "owner",
          "type": "address"
        },
        {
          "indexed": true,
          "internalType": "address",
          "name": "operator",
          "type": "address"
        },
        {
          "indexed": false,
          "internalType": "bool",
          "name": "approved",
          "type": "bool"
        }
      ],
      "name": "ApprovalForAll",
      "type": "event"
    },
    {
      "anonymous": false,
      "inputs": [
        {
          "indexed": false,
          "internalType": "uint256",
          "name": "newBossHp",
          "type": "uint256"
        },
        {
          "indexed": false,
          "internalType": "uint256",
          "name": "newPlayerHp",
          "type": "uint256"
        }
      ],
      "name": "AttackComplete",
      "type": "event"
    },
    {
      "anonymous": false,
      "inputs": [
        {
          "indexed": false,
          "internalType": "address",
          "name": "sender",
          "type": "address"
        },
        {
          "indexed": false,
          "internalType": "uint256",
          "name": "tokenId",
          "type": "uint256"
        },
        {
          "indexed": false,
          "internalType": "uint256",
          "name": "characterIndex",
          "type": "uint256"
        }
      ],
      "name": "CharacterNFTMinted",
      "type": "event"
    },
    {
      "anonymous": false,
      "inputs": [
        {
          "indexed": true,
          "internalType": "address",
          "name": "from",
          "type": "address"
        },
        {
          "indexed": true,
          "internalType": "address",
          "name": "to",
          "type": "address"
        },
        {
          "indexed": true,
          "internalType": "uint256",
          "name": "tokenId",
          "type": "uint256"
        }
      ],
      "name": "Transfer",
      "type": "event"
    },
    {
      "inputs": [
        {
          "internalType": "address",
          "name": "to",
          "type": "address"
        },
        {
          "internalType": "uint256",
          "name": "tokenId",
          "type": "uint256"
        }
      ],
      "name": "approve",
      "outputs": [],
      "stateMutability": "nonpayable",
      "type": "function"
    },
    {
      "inputs": [],
      "name": "attackBoss",
      "outputs": [],
      "stateMutability": "nonpayable",
      "type": "function"
    },
    {
      "inputs": [
        {
          "internalType": "address",
          "name": "owner",
          "type": "address"
        }
      ],
      "name": "balanceOf",
      "outputs": [
        {
          "internalType": "uint256",
          "name": "",
          "type": "uint256"
        }
      ],
      "stateMutability": "view",
      "type": "function"
    },
    {
      "inputs": [],
      "name": "bigBoss",
      "outputs": [
        {
          "internalType": "string",
          "name": "name",
          "type": "string"
        },
        {
          "internalType": "string",
          "name": "imageURI",
          "type": "string"
        },
        {
          "internalType": "uint256",
          "name": "hp",
          "type": "uint256"
        },
        {
          "internalType": "uint256",
          "name": "maxHp",
          "type": "uint256"
        },
        {
          "internalType": "uint256",
          "name": "attackDamage",
          "type": "uint256"
        }
      ],
      "stateMutability": "view",
      "type": "function"
    },
    {
      "inputs": [],
      "name": "checkIfUserHasNFT",
      "outputs": [
        {
          "components": [
            {
              "internalType": "uint256",
              "name": "characterIndex",
              "type": "uint256"
            },
            {
              "internalType": "string",
              "name": "name",
              "type": "string"
            },
            {
              "internalType": "string",
              "name": "imageURI",
              "type": "string"
            },
            {
              "internalType": "uint256",
              "name": "hp",
              "type": "uint256"
            },
            {
              "internalType": "uint256",
              "name": "maxHp",
              "type": "uint256"
            },
            {
              "internalType": "uint256",
              "name": "attackDamage",
              "type": "uint256"
            }
          ],
          "internalType": "struct MyEpicGame.CharacterAttributes",
          "name": "",
          "type": "tuple"
        }
      ],
      "stateMutability": "view",
      "type": "function"
    },
    {
      "inputs": [
        {
          "internalType": "uint256",
          "name": "",
          "type": "uint256"
        }
      ],
      "name": "defaultCharacters",
      "outputs": [
        {
          "internalType": "uint256",
          "name": "characterIndex",
          "type": "uint256"
        },
        {
          "internalType": "string",
          "name": "name",
          "type": "string"
        },
        {
          "internalType": "string",
          "name": "imageURI",
          "type": "string"
        },
        {
          "internalType": "uint256",
          "name": "hp",
          "type": "uint256"
        },
        {
          "internalType": "uint256",
          "name": "maxHp",
          "type": "uint256"
        },
        {
          "internalType": "uint256",
          "name": "attackDamage",
          "type": "uint256"
        }
      ],
      "stateMutability": "view",
      "type": "function"
    },
    {
      "inputs": [],
      "name": "getAllDefaultChatacters",
      "outputs": [
        {
          "components": [
            {
              "internalType": "uint256",
              "name": "characterIndex",
              "type": "uint256"
            },
            {
              "internalType": "string",
              "name": "name",
              "type": "string"
            },
            {
              "internalType": "string",
              "name": "imageURI",
              "type": "string"
            },
            {
              "internalType": "uint256",
              "name": "hp",
              "type": "uint256"
            },
            {
              "internalType": "uint256",
              "name": "maxHp",
              "type": "uint256"
            },
            {
              "internalType": "uint256",
              "name": "attackDamage",
              "type": "uint256"
            }
          ],
          "internalType": "struct MyEpicGame.CharacterAttributes[]",
          "name": "",
          "type": "tuple[]"
        }
      ],
      "stateMutability": "view",
      "type": "function"
    },
    {
      "inputs": [
        {
          "internalType": "uint256",
          "name": "tokenId",
          "type": "uint256"
        }
      ],
      "name": "getApproved",
      "outputs": [
        {
          "internalType": "address",
          "name": "",
          "type": "address"
        }
      ],
      "stateMutability": "view",
      "type": "function"
    },
    {
      "inputs": [],
      "name": "getBigBoss",
      "outputs": [
        {
          "components": [
            {
              "internalType": "string",
              "name": "name",
              "type": "string"
            },
            {
              "internalType": "string",
              "name": "imageURI",
              "type": "string"
            },
            {
              "internalType": "uint256",
              "name": "hp",
              "type": "uint256"
            },
            {
              "internalType": "uint256",
              "name": "maxHp",
              "type": "uint256"
            },
            {
              "internalType": "uint256",
              "name": "attackDamage",
              "type": "uint256"
            }
          ],
          "internalType": "struct MyEpicGame.BigBoss",
          "name": "",
          "type": "tuple"
        }
      ],
      "stateMutability": "view",
      "type": "function"
    },
    {
      "inputs": [
        {
          "internalType": "address",
          "name": "owner",
          "type": "address"
        },
        {
          "internalType": "address",
          "name": "operator",
          "type": "address"
        }
      ],
      "name": "isApprovedForAll",
      "outputs": [
        {
          "internalType": "bool",
          "name": "",
          "type": "bool"
        }
      ],
      "stateMutability": "view",
      "type": "function"
    },
    {
      "inputs": [
        {
          "internalType": "uint256",
          "name": "_characterIndex",
          "type": "uint256"
        }
      ],
      "name": "mintCharacterNFT",
      "outputs": [],
      "stateMutability": "nonpayable",
      "type": "function"
    },
    {
      "inputs": [],
      "name": "name",
      "outputs": [
        {
          "internalType": "string",
          "name": "",
          "type": "string"
        }
      ],
      "stateMutability": "view",
      "type": "function"
    },
    {
      "inputs": [
        {
          "internalType": "uint256",
          "name": "",
          "type": "uint256"
        }
      ],
      "name": "nftHolderAttributes",
      "outputs": [
        {
          "internalType": "uint256",
          "name": "characterIndex",
          "type": "uint256"
        },
        {
          "internalType": "string",
          "name": "name",
          "type": "string"
        },
        {
          "internalType": "string",
          "name": "imageURI",
          "type": "string"
        },
        {
          "internalType": "uint256",
          "name": "hp",
          "type": "uint256"
        },
        {
          "internalType": "uint256",
          "name": "maxHp",
          "type": "uint256"
        },
        {
          "internalType": "uint256",
          "name": "attackDamage",
          "type": "uint256"
        }
      ],
      "stateMutability": "view",
      "type": "function"
    },
    {
      "inputs": [
        {
          "internalType": "address",
          "name": "",
          "type": "address"
        }
      ],
      "name": "nftHolders",
      "outputs": [
        {
          "internalType": "uint256",
          "name": "",
          "type": "uint256"
        }
      ],
      "stateMutability": "view",
      "type": "function"
    },
    {
      "inputs": [
        {
          "internalType": "uint256",
          "name": "tokenId",
          "type": "uint256"
        }
      ],
      "name": "ownerOf",
      "outputs": [
        {
          "internalType": "address",
          "name": "",
          "type": "address"
        }
      ],
      "stateMutability": "view",
      "type": "function"
    },
    {
      "inputs": [
        {
          "internalType": "address",
          "name": "from",
          "type": "address"
        },
        {
          "internalType": "address",
          "name": "to",
          "type": "address"
        },
        {
          "internalType": "uint256",
          "name": "tokenId",
          "type": "uint256"
        }
      ],
      "name": "safeTransferFrom",
      "outputs": [],
      "stateMutability": "nonpayable",
      "type": "function"
    },
    {
      "inputs": [
        {
          "internalType": "address",
          "name": "from",
          "type": "address"
        },
        {
          "internalType": "address",
          "name": "to",
          "type": "address"
        },
        {
          "internalType": "uint256",
          "name": "tokenId",
          "type": "uint256"
        },
        {
          "internalType": "bytes",
          "name": "data",
          "type": "bytes"
        }
      ],
      "name": "safeTransferFrom",
      "outputs": [],
      "stateMutability": "nonpayable",
      "type": "function"
    },
    {
      "inputs": [
        {
          "internalType": "address",
          "name": "operator",
          "type": "address"
        },
        {
          "internalType": "bool",
          "name": "approved",
          "type": "bool"
        }
      ],
      "name": "setApprovalForAll",
      "outputs": [],
      "stateMutability": "nonpayable",
      "type": "function"
    },
    {
      "inputs": [
        {
          "internalType": "bytes4",
          "name": "interfaceId",
          "type": "bytes4"
        }
      ],
      "name": "supportsInterface",
      "outputs": [
        {
          "internalType": "bool",
          "name": "",
          "type": "bool"
        }
      ],
      "stateMutability": "view",
      "type": "function"
    },
    {
      "inputs": [],
      "name": "symbol",
      "outputs": [
        {
          "internalType": "string",
          "name": "",
          "type": "string"
        }
      ],
      "stateMutability": "view",
      "type": "function"
    },
    {
      "inputs": [
        {
          "internalType": "uint256",
          "name": "_tokenId",
          "type": "uint256"
        }
      ],
      "name": "tokenURI",
      "outputs": [
        {
          "internalType": "string",
          "name": "",
          "type": "string"
        }
      ],
      "stateMutability": "view",
      "type": "function"
    },
    {
      "inputs": [
        {
          "internalType": "address",
          "name": "from",
          "type": "address"
        },
        {
          "internalType": "address",
          "name": "to",
          "type": "address"
        },
        {
          "internalType": "uint256",
          "name": "tokenId",
          "type": "uint256"
        }
      ],
      "name": "transferFrom",
      "outputs": [],
      "stateMutability": "nonpayable",
      "type": "function"
    }
  ],
  "bytecode": "0x60806040523480156200001157600080fd5b50604051620058fb380380620058fb833981810160405281019062000037919062000a85565b6040518060400160405280600681526020017f4865726f657300000000000000000000000000000000000000000000000000008152506040518060400160405280600481526020017f4865726f000000000000000000000000000000000000000000000000000000008152508160009080519060200190620000bb929190620007ed565b508060019080519060200190620000d4929190620007ed565b5050506040518060a0016040528085815260200184815260200183815260200183815260200182815250600860008201518160000190805190602001906200011e929190620007ed565b5060208201518160010190805190602001906200013d929190620007ed565b50604082015181600201556060820151816003015560808201518160040155905050620002c0604051806060016040528060328152602001620058c960329139600860000180546200018f9062000e08565b80601f0160208091040260200160405190810160405280929190818152602001828054620001bd9062000e08565b80156200020e5780601f10620001e2576101008083540402835291602001916200020e565b820191906000526020600020905b815481529060010190602001808311620001f057829003601f168201915b5050505050600860020154600860010180546200022b9062000e08565b80601f0160208091040260200160405190810160405280929190818152602001828054620002599062000e08565b8015620002aa5780601f106200027e57610100808354040283529160200191620002aa565b820191906000526020600020905b8154815290600101906020018083116200028c57829003601f168201915b50505050506200070260201b62001d311760201c565b60005b8851811015620006dc5760076040518060c001604052808381526020018b84815181106200031a577f4e487b7100000000000000000000000000000000000000000000000000000000600052603260045260246000fd5b602002602001015181526020018a848151811062000361577f4e487b7100000000000000000000000000000000000000000000000000000000600052603260045260246000fd5b60200260200101518152602001898481518110620003a8577f4e487b7100000000000000000000000000000000000000000000000000000000600052603260045260246000fd5b60200260200101518152602001898481518110620003ef577f4e487b7100000000000000000000000000000000000000000000000000000000600052603260045260246000fd5b6020026020010151815260200188848151811062000436577f4e487b7100000000000000000000000000000000000000000000000000000000600052603260045260246000fd5b6020026020010151815250908060018154018082558091505060019003906000526020600020906006020160009091909190915060008201518160000155602082015181600101908051906020019062000492929190620007ed565b506040820151816002019080519060200190620004b1929190620007ed565b50606082015181600301556080820151816004015560a0820151816005015550506000600782815481106200050f577f4e487b7100000000000000000000000000000000000000000000000000000000600052603260045260246000fd5b90600052602060002090600602016040518060c001604052908160008201548152602001600182018054620005449062000e08565b80601f0160208091040260200160405190810160405280929190818152602001828054620005729062000e08565b8015620005c35780601f106200059757610100808354040283529160200191620005c3565b820191906000526020600020905b815481529060010190602001808311620005a557829003601f168201915b50505050508152602001600282018054620005de9062000e08565b80601f01602080910402602001604051908101604052809291908181526020018280546200060c9062000e08565b80156200065d5780601f1062000631576101008083540402835291602001916200065d565b820191906000526020600020905b8154815290600101906020018083116200063f57829003601f168201915b5050505050815260200160038201548152602001600482015481526020016005820154815250509050620006c460405180606001604052806030815260200162005899603091398260200151836060015184604001516200070260201b62001d311760201c565b50600181620006d4919062000d6b565b9050620002c3565b50620006f46006620007ae60201b62001dd31760201c565b505050505050505062000f2c565b620007a8848484846040516024016200071f949392919062000c30565b6040516020818303038152906040527f8d142cdd000000000000000000000000000000000000000000000000000000007bffffffffffffffffffffffffffffffffffffffffffffffffffffffff19166020820180517bffffffffffffffffffffffffffffffffffffffffffffffffffffffff8381831617835250505050620007c460201b60201c565b50505050565b6001816000016000828254019250508190555050565b60008151905060006a636f6e736f6c652e6c6f679050602083016000808483855afa5050505050565b828054620007fb9062000e08565b90600052602060002090601f0160209004810192826200081f57600085556200086b565b82601f106200083a57805160ff19168380011785556200086b565b828001600101855582156200086b579182015b828111156200086a5782518255916020019190600101906200084d565b5b5090506200087a91906200087e565b5090565b5b80821115620008995760008160009055506001016200087f565b5090565b6000620008b4620008ae8462000cbb565b62000c92565b90508083825260208201905082856020860282011115620008d457600080fd5b60005b858110156200092357815167ffffffffffffffff811115620008f857600080fd5b80860162000907898262000a41565b85526020850194506020840193505050600181019050620008d7565b5050509392505050565b6000620009446200093e8462000cea565b62000c92565b905080838252602082019050828560208602820111156200096457600080fd5b60005b858110156200099857816200097d888262000a6e565b84526020840193506020830192505060018101905062000967565b5050509392505050565b6000620009b9620009b38462000d19565b62000c92565b905082815260208101848484011115620009d257600080fd5b620009df84828562000dd2565b509392505050565b600082601f830112620009f957600080fd5b815162000a0b8482602086016200089d565b91505092915050565b600082601f83011262000a2657600080fd5b815162000a388482602086016200092d565b91505092915050565b600082601f83011262000a5357600080fd5b815162000a65848260208601620009a2565b91505092915050565b60008151905062000a7f8162000f12565b92915050565b600080600080600080600080610100898b03121562000aa357600080fd5b600089015167ffffffffffffffff81111562000abe57600080fd5b62000acc8b828c01620009e7565b985050602089015167ffffffffffffffff81111562000aea57600080fd5b62000af88b828c01620009e7565b975050604089015167ffffffffffffffff81111562000b1657600080fd5b62000b248b828c0162000a14565b965050606089015167ffffffffffffffff81111562000b4257600080fd5b62000b508b828c0162000a14565b955050608089015167ffffffffffffffff81111562000b6e57600080fd5b62000b7c8b828c0162000a41565b94505060a089015167ffffffffffffffff81111562000b9a57600080fd5b62000ba88b828c0162000a41565b93505060c062000bbb8b828c0162000a6e565b92505060e062000bce8b828c0162000a6e565b9150509295985092959890939650565b600062000beb8262000d4f565b62000bf7818562000d5a565b935062000c0981856020860162000dd2565b62000c148162000f01565b840191505092915050565b62000c2a8162000dc8565b82525050565b6000608082019050818103600083015262000c4c818762000bde565b9050818103602083015262000c62818662000bde565b905062000c73604083018562000c1f565b818103606083015262000c87818462000bde565b905095945050505050565b600062000c9e62000cb1565b905062000cac828262000e3e565b919050565b6000604051905090565b600067ffffffffffffffff82111562000cd95762000cd862000ed2565b5b602082029050602081019050919050565b600067ffffffffffffffff82111562000d085762000d0762000ed2565b5b602082029050602081019050919050565b600067ffffffffffffffff82111562000d375762000d3662000ed2565b5b62000d428262000f01565b9050602081019050919050565b600081519050919050565b600082825260208201905092915050565b600062000d788262000dc8565b915062000d858362000dc8565b9250827fffffffffffffffffffffffffffffffffffffffffffffffffffffffffffffffff0382111562000dbd5762000dbc62000e74565b5b828201905092915050565b6000819050919050565b60005b8381101562000df257808201518184015260208101905062000dd5565b8381111562000e02576000848401525b50505050565b6000600282049050600182168062000e2157607f821691505b6020821081141562000e385762000e3762000ea3565b5b50919050565b62000e498262000f01565b810181811067ffffffffffffffff8211171562000e6b5762000e6a62000ed2565b5b80604052505050565b7f4e487b7100000000000000000000000000000000000000000000000000000000600052601160045260246000fd5b7f4e487b7100000000000000000000000000000000000000000000000000000000600052602260045260246000fd5b7f4e487b7100000000000000000000000000000000000000000000000000000000600052604160045260246000fd5b6000601f19601f8301169050919050565b62000f1d8162000dc8565b811462000f2957600080fd5b50565b61495d8062000f3c6000396000f3fe608060405234801561001057600080fd5b50600436106101425760003560e01c806395d89b41116100b8578063c87b56dd1161007c578063c87b56dd14610392578063c8cf27f4146103c2578063d4f24c5b146103e0578063e985e9c5146103ea578063f7a0a8241461041a578063f8b81ef71461044f57610142565b806395d89b41146102e557806398da4c9514610303578063a22cb46514610338578063a9c3267914610354578063b88d4fde1461037657610142565b806323b872dd1161010a57806323b872dd146101ff5780632774243f1461021b57806342842e0e146102395780636352211e1461025557806370a08231146102855780637df124a1146102b557610142565b806301ffc9a7146101475780630665f9611461017757806306fdde0314610195578063081812fc146101b3578063095ea7b3146101e3575b600080fd5b610161600480360381019061015c91906131a6565b61046b565b60405161016e91906139c5565b60405180910390f35b61017f61054d565b60405161018c9190613d1e565b60405180910390f35b61019d6106a9565b6040516101aa91906139e0565b60405180910390f35b6101cd60048036038101906101c891906131f8565b61073b565b6040516101da9190613905565b60405180910390f35b6101fd60048036038101906101f8919061316a565b610781565b005b61021960048036038101906102149190613064565b610899565b005b6102236108f9565b60405161023091906139a3565b60405180910390f35b610253600480360381019061024e9190613064565b610aa4565b005b61026f600480360381019061026a91906131f8565b610ac4565b60405161027c9190613905565b60405180910390f35b61029f600480360381019061029a9190612fff565b610b76565b6040516102ac9190613d62565b60405180910390f35b6102cf60048036038101906102ca9190612fff565b610c2e565b6040516102dc9190613d62565b60405180910390f35b6102ed610c46565b6040516102fa91906139e0565b60405180910390f35b61031d600480360381019061031891906131f8565b610cd8565b60405161032f96959493929190613d7d565b60405180910390f35b610352600480360381019061034d919061312e565b610e24565b005b61035c610e3a565b60405161036d959493929190613aaf565b60405180910390f35b610390600480360381019061038b91906130b3565b610f6e565b005b6103ac60048036038101906103a791906131f8565b610fd0565b6040516103b991906139e0565b60405180910390f35b6103ca6111eb565b6040516103d79190613d40565b60405180910390f35b6103e86113c3565b005b61040460048036038101906103ff9190613028565b61174d565b60405161041191906139c5565b60405180910390f35b610434600480360381019061042f91906131f8565b6117e1565b60405161044696959493929190613d7d565b60405180910390f35b610469600480360381019061046491906131f8565b61193d565b005b60007f80ac58cd000000000000000000000000000000000000000000000000000000007bffffffffffffffffffffffffffffffffffffffffffffffffffffffff1916827bffffffffffffffffffffffffffffffffffffffffffffffffffffffff1916148061053657507f5b5e139f000000000000000000000000000000000000000000000000000000007bffffffffffffffffffffffffffffffffffffffffffffffffffffffff1916827bffffffffffffffffffffffffffffffffffffffffffffffffffffffff1916145b80610546575061054582611de9565b5b9050919050565b610555612e26565b60086040518060a0016040529081600082018054610572906140c3565b80601f016020809104026020016040519081016040528092919081815260200182805461059e906140c3565b80156105eb5780601f106105c0576101008083540402835291602001916105eb565b820191906000526020600020905b8154815290600101906020018083116105ce57829003601f168201915b50505050508152602001600182018054610604906140c3565b80601f0160208091040260200160405190810160405280929190818152602001828054610630906140c3565b801561067d5780601f106106525761010080835404028352916020019161067d565b820191906000526020600020905b81548152906001019060200180831161066057829003601f168201915b505050505081526020016002820154815260200160038201548152602001600482015481525050905090565b6060600080546106b8906140c3565b80601f01602080910402602001604051908101604052809291908181526020018280546106e4906140c3565b80156107315780601f1061070657610100808354040283529160200191610731565b820191906000526020600020905b81548152906001019060200180831161071457829003601f168201915b5050505050905090565b600061074682611e53565b6004600083815260200190815260200160002060009054906101000a900473ffffffffffffffffffffffffffffffffffffffff169050919050565b600061078c82610ac4565b90508073ffffffffffffffffffffffffffffffffffffffff168373ffffffffffffffffffffffffffffffffffffffff1614156107fd576040517f08c379a00000000000000000000000000000000000000000000000000000000081526004016107f490613cde565b60405180910390fd5b8073ffffffffffffffffffffffffffffffffffffffff1661081c611e9e565b73ffffffffffffffffffffffffffffffffffffffff16148061084b575061084a81610845611e9e565b61174d565b5b61088a576040517f08c379a000000000000000000000000000000000000000000000000000000000815260040161088190613c5e565b60405180910390fd5b6108948383611ea6565b505050565b6108aa6108a4611e9e565b82611f5f565b6108e9576040517f08c379a00000000000000000000000000000000000000000000000000000000081526004016108e090613cfe565b60405180910390fd5b6108f4838383611ff4565b505050565b60606007805480602002602001604051908101604052809291908181526020016000905b82821015610a9b57838290600052602060002090600602016040518060c00160405290816000820154815260200160018201805461095a906140c3565b80601f0160208091040260200160405190810160405280929190818152602001828054610986906140c3565b80156109d35780601f106109a8576101008083540402835291602001916109d3565b820191906000526020600020905b8154815290600101906020018083116109b657829003601f168201915b505050505081526020016002820180546109ec906140c3565b80601f0160208091040260200160405190810160405280929190818152602001828054610a18906140c3565b8015610a655780601f10610a3a57610100808354040283529160200191610a65565b820191906000526020600020905b815481529060010190602001808311610a4857829003601f168201915b5050505050815260200160038201548152602001600482015481526020016005820154815250508152602001906001019061091d565b50505050905090565b610abf83838360405180602001604052806000815250610f6e565b505050565b6000806002600084815260200190815260200160002060009054906101000a900473ffffffffffffffffffffffffffffffffffffffff169050600073ffffffffffffffffffffffffffffffffffffffff168173ffffffffffffffffffffffffffffffffffffffff161415610b6d576040517f08c379a0000000000000000000000000000000000000000000000000000000008152600401610b6490613cbe565b60405180910390fd5b80915050919050565b60008073ffffffffffffffffffffffffffffffffffffffff168273ffffffffffffffffffffffffffffffffffffffff161415610be7576040517f08c379a0000000000000000000000000000000000000000000000000000000008152600401610bde90613c1e565b60405180910390fd5b600360008373ffffffffffffffffffffffffffffffffffffffff1673ffffffffffffffffffffffffffffffffffffffff168152602001908152602001600020549050919050565b600e6020528060005260406000206000915090505481565b606060018054610c55906140c3565b80601f0160208091040260200160405190810160405280929190818152602001828054610c81906140c3565b8015610cce5780601f10610ca357610100808354040283529160200191610cce565b820191906000526020600020905b815481529060010190602001808311610cb157829003601f168201915b5050505050905090565b600d602052806000526040600020600091509050806000015490806001018054610d01906140c3565b80601f0160208091040260200160405190810160405280929190818152602001828054610d2d906140c3565b8015610d7a5780601f10610d4f57610100808354040283529160200191610d7a565b820191906000526020600020905b815481529060010190602001808311610d5d57829003601f168201915b505050505090806002018054610d8f906140c3565b80601f0160208091040260200160405190810160405280929190818152602001828054610dbb906140c3565b8015610e085780601f10610ddd57610100808354040283529160200191610e08565b820191906000526020600020905b815481529060010190602001808311610deb57829003601f168201915b5050505050908060030154908060040154908060050154905086565b610e36610e2f611e9e565b838361225b565b5050565b6008806000018054610e4b906140c3565b80601f0160208091040260200160405190810160405280929190818152602001828054610e77906140c3565b8015610ec45780601f10610e9957610100808354040283529160200191610ec4565b820191906000526020600020905b815481529060010190602001808311610ea757829003601f168201915b505050505090806001018054610ed9906140c3565b80601f0160208091040260200160405190810160405280929190818152602001828054610f05906140c3565b8015610f525780601f10610f2757610100808354040283529160200191610f52565b820191906000526020600020905b815481529060010190602001808311610f3557829003601f168201915b5050505050908060020154908060030154908060040154905085565b610f7f610f79611e9e565b83611f5f565b610fbe576040517f08c379a0000000000000000000000000000000000000000000000000000000008152600401610fb590613cfe565b60405180910390fd5b610fca848484846123c8565b50505050565b60606000600d60008481526020019081526020016000206040518060c00160405290816000820154815260200160018201805461100c906140c3565b80601f0160208091040260200160405190810160405280929190818152602001828054611038906140c3565b80156110855780601f1061105a57610100808354040283529160200191611085565b820191906000526020600020905b81548152906001019060200180831161106857829003601f168201915b5050505050815260200160028201805461109e906140c3565b80601f01602080910402602001604051908101604052809291908181526020018280546110ca906140c3565b80156111175780601f106110ec57610100808354040283529160200191611117565b820191906000526020600020905b8154815290600101906020018083116110fa57829003601f168201915b5050505050815260200160038201548152602001600482015481526020016005820154815250509050600061114f8260600151612424565b905060006111608360800151612424565b905060006111718460a00151612424565b905060006111b7856020015161118689612424565b87604001518787876040516020016111a39695949392919061383e565b6040516020818303038152906040526125d1565b90506000816040516020016111cc91906138e3565b6040516020818303038152906040529050809650505050505050919050565b6111f3612e55565b6000600e60003373ffffffffffffffffffffffffffffffffffffffff1673ffffffffffffffffffffffffffffffffffffffff16815260200190815260200160002054905060008111156113b257600d60008281526020019081526020016000206040518060c001604052908160008201548152602001600182018054611278906140c3565b80601f01602080910402602001604051908101604052809291908181526020018280546112a4906140c3565b80156112f15780601f106112c6576101008083540402835291602001916112f1565b820191906000526020600020905b8154815290600101906020018083116112d457829003601f168201915b5050505050815260200160028201805461130a906140c3565b80601f0160208091040260200160405190810160405280929190818152602001828054611336906140c3565b80156113835780601f1061135857610100808354040283529160200191611383565b820191906000526020600020905b81548152906001019060200180831161136657829003601f168201915b5050505050815260200160038201548152602001600482015481526020016005820154815250509150506113c0565b6113ba612e55565b80925050505b90565b6000600e60003373ffffffffffffffffffffffffffffffffffffffff1673ffffffffffffffffffffffffffffffffffffffff1681526020019081526020016000205490506000600d600083815260200190815260200160002090506114d66040518060800160405280604b81526020016148b1604b9139826001018054611449906140c3565b80601f0160208091040260200160405190810160405280929190818152602001828054611475906140c3565b80156114c25780601f10611497576101008083540402835291602001916114c2565b820191906000526020600020905b8154815290600101906020018083116114a557829003601f168201915b50505050508360030154846005015461278f565b6115ae6040518060400160405280601f81526020017f426f73732025732074656d2025732064652048502065202573206465205041008152506008600001805461151f906140c3565b80601f016020809104026020016040519081016040528092919081815260200182805461154b906140c3565b80156115985780601f1061156d57610100808354040283529160200191611598565b820191906000526020600020905b81548152906001019060200180831161157b57829003601f168201915b505050505060086002015460086004015461278f565b60008160030154116115f5576040517f08c379a00000000000000000000000000000000000000000000000000000000081526004016115ec90613c3e565b60405180910390fd5b60006008600201541161163d576040517f08c379a000000000000000000000000000000000000000000000000000000000815260040161163490613c9e565b60405180910390fd5b8060050154600860020154101561165e57600060086002018190555061167d565b80600501546008600201546116739190613fd9565b6008600201819055505b80600501548160030154101561169c57600081600301819055506116ba565b60086004015481600301546116b19190613fd9565b81600301819055505b6116e16040518060600160405280602c8152602001614845602c9139600860020154612831565b611707604051806060016040528060308152602001614815603091398260030154612831565b7f838ab28464562786a6c4ab2311964b82fa60bd9b14aa7e856af1f3f18d41a4146008600201548260030154604051611741929190613dec565b60405180910390a15050565b6000600560008473ffffffffffffffffffffffffffffffffffffffff1673ffffffffffffffffffffffffffffffffffffffff16815260200190815260200160002060008373ffffffffffffffffffffffffffffffffffffffff1673ffffffffffffffffffffffffffffffffffffffff16815260200190815260200160002060009054906101000a900460ff16905092915050565b600781815481106117f157600080fd5b906000526020600020906006020160009150905080600001549080600101805461181a906140c3565b80601f0160208091040260200160405190810160405280929190818152602001828054611846906140c3565b80156118935780601f1061186857610100808354040283529160200191611893565b820191906000526020600020905b81548152906001019060200180831161187657829003601f168201915b5050505050908060020180546118a8906140c3565b80601f01602080910402602001604051908101604052809291908181526020018280546118d4906140c3565b80156119215780601f106118f657610100808354040283529160200191611921565b820191906000526020600020905b81548152906001019060200180831161190457829003601f168201915b5050505050908060030154908060040154908060050154905086565b600061194960066128cd565b905061195533826128db565b6040518060c00160405280838152602001600784815481106119a0577f4e487b7100000000000000000000000000000000000000000000000000000000600052603260045260246000fd5b906000526020600020906006020160010180546119bc906140c3565b80601f01602080910402602001604051908101604052809291908181526020018280546119e8906140c3565b8015611a355780601f10611a0a57610100808354040283529160200191611a35565b820191906000526020600020905b815481529060010190602001808311611a1857829003601f168201915b5050505050815260200160078481548110611a79577f4e487b7100000000000000000000000000000000000000000000000000000000600052603260045260246000fd5b90600052602060002090600602016002018054611a95906140c3565b80601f0160208091040260200160405190810160405280929190818152602001828054611ac1906140c3565b8015611b0e5780601f10611ae357610100808354040283529160200191611b0e565b820191906000526020600020905b815481529060010190602001808311611af157829003601f168201915b5050505050815260200160078481548110611b52577f4e487b7100000000000000000000000000000000000000000000000000000000600052603260045260246000fd5b906000526020600020906006020160030154815260200160078481548110611ba3577f4e487b7100000000000000000000000000000000000000000000000000000000600052603260045260246000fd5b906000526020600020906006020160040154815260200160078481548110611bf4577f4e487b7100000000000000000000000000000000000000000000000000000000600052603260045260246000fd5b906000526020600020906006020160050154815250600d6000838152602001908152602001600020600082015181600001556020820151816001019080519060200190611c42929190612e8b565b506040820151816002019080519060200190611c5f929190612e8b565b50606082015181600301556080820151816004015560a08201518160050155905050611ca46040518060600160405280602c81526020016148fc602c913982846128f9565b80600e60003373ffffffffffffffffffffffffffffffffffffffff1673ffffffffffffffffffffffffffffffffffffffff16815260200190815260200160002081905550611cf26006611dd3565b7f4bc303fd457a97b4691b9af582ce71868a3d258638c8d4f8c60988a0f0bfb8cd338284604051611d259392919061396c565b60405180910390a15050565b611dcd84848484604051602401611d4b9493929190613a02565b6040516020818303038152906040527f8d142cdd000000000000000000000000000000000000000000000000000000007bffffffffffffffffffffffffffffffffffffffffffffffffffffffff19166020820180517bffffffffffffffffffffffffffffffffffffffffffffffffffffffff8381831617835250505050612998565b50505050565b6001816000016000828254019250508190555050565b60007f01ffc9a7000000000000000000000000000000000000000000000000000000007bffffffffffffffffffffffffffffffffffffffffffffffffffffffff1916827bffffffffffffffffffffffffffffffffffffffffffffffffffffffff1916149050919050565b611e5c816129c1565b611e9b576040517f08c379a0000000000000000000000000000000000000000000000000000000008152600401611e9290613cbe565b60405180910390fd5b50565b600033905090565b816004600083815260200190815260200160002060006101000a81548173ffffffffffffffffffffffffffffffffffffffff021916908373ffffffffffffffffffffffffffffffffffffffff160217905550808273ffffffffffffffffffffffffffffffffffffffff16611f1983610ac4565b73ffffffffffffffffffffffffffffffffffffffff167f8c5be1e5ebec7d5bd14f71427d1e84f3dd0314c0f7b2291e5b200ac8c7c3b92560405160405180910390a45050565b600080611f6b83610ac4565b90508073ffffffffffffffffffffffffffffffffffffffff168473ffffffffffffffffffffffffffffffffffffffff161480611fad5750611fac818561174d565b5b80611feb57508373ffffffffffffffffffffffffffffffffffffffff16611fd38461073b565b73ffffffffffffffffffffffffffffffffffffffff16145b91505092915050565b8273ffffffffffffffffffffffffffffffffffffffff1661201482610ac4565b73ffffffffffffffffffffffffffffffffffffffff161461206a576040517f08c379a000000000000000000000000000000000000000000000000000000000815260040161206190613b9e565b60405180910390fd5b600073ffffffffffffffffffffffffffffffffffffffff168273ffffffffffffffffffffffffffffffffffffffff1614156120da576040517f08c379a00000000000000000000000000000000000000000000000000000000081526004016120d190613bde565b60405180910390fd5b6120e5838383612a2d565b6120f0600082611ea6565b6001600360008573ffffffffffffffffffffffffffffffffffffffff1673ffffffffffffffffffffffffffffffffffffffff16815260200190815260200160002060008282546121409190613fd9565b925050819055506001600360008473ffffffffffffffffffffffffffffffffffffffff1673ffffffffffffffffffffffffffffffffffffffff16815260200190815260200160002060008282546121979190613ef8565b92505081905550816002600083815260200190815260200160002060006101000a81548173ffffffffffffffffffffffffffffffffffffffff021916908373ffffffffffffffffffffffffffffffffffffffff160217905550808273ffffffffffffffffffffffffffffffffffffffff168473ffffffffffffffffffffffffffffffffffffffff167fddf252ad1be2c89b69c2b068fc378daa952ba7f163c4a11628f55a4df523b3ef60405160405180910390a4612256838383612a32565b505050565b8173ffffffffffffffffffffffffffffffffffffffff168373ffffffffffffffffffffffffffffffffffffffff1614156122ca576040517f08c379a00000000000000000000000000000000000000000000000000000000081526004016122c190613bfe565b60405180910390fd5b80600560008573ffffffffffffffffffffffffffffffffffffffff1673ffffffffffffffffffffffffffffffffffffffff16815260200190815260200160002060008473ffffffffffffffffffffffffffffffffffffffff1673ffffffffffffffffffffffffffffffffffffffff16815260200190815260200160002060006101000a81548160ff0219169083151502179055508173ffffffffffffffffffffffffffffffffffffffff168373ffffffffffffffffffffffffffffffffffffffff167f17307eab39ab6107e8899845ad3d59bd9653f200f220920489ca2b5937696c31836040516123bb91906139c5565b60405180910390a3505050565b6123d3848484611ff4565b6123df84848484612a37565b61241e576040517f08c379a000000000000000000000000000000000000000000000000000000000815260040161241590613b7e565b60405180910390fd5b50505050565b6060600082141561246c576040518060400160405280600181526020017f300000000000000000000000000000000000000000000000000000000000000081525090506125cc565b600082905060005b6000821461249e57808061248790614126565b915050600a826124979190613f4e565b9150612474565b60008167ffffffffffffffff8111156124e0577f4e487b7100000000000000000000000000000000000000000000000000000000600052604160045260246000fd5b6040519080825280601f01601f1916602001820160405280156125125781602001600182028036833780820191505090505b5090505b600085146125c55760018261252b9190613fd9565b9150600a8561253a919061416f565b60306125469190613ef8565b60f81b818381518110612582577f4e487b7100000000000000000000000000000000000000000000000000000000600052603260045260246000fd5b60200101907effffffffffffffffffffffffffffffffffffffffffffffffffffffffffffff1916908160001a905350600a856125be9190613f4e565b9450612516565b8093505050505b919050565b606060008251905060008114156125fa576040518060200160405280600081525091505061278a565b6000600360028361260b9190613ef8565b6126159190613f4e565b60046126219190613f7f565b905060006020826126329190613ef8565b67ffffffffffffffff811115612671577f4e487b7100000000000000000000000000000000000000000000000000000000600052604160045260246000fd5b6040519080825280601f01601f1916602001820160405280156126a35781602001600182028036833780820191505090505b5090506000604051806060016040528060408152602001614871604091399050600181016020830160005b868110156127475760038101905062ffffff818a015116603f8160121c168401518060081b905060ff603f83600c1c1686015116810190508060081b905060ff603f8360061c1686015116810190508060081b905060ff603f831686015116810190508060e01b905080845260048401935050506126ce565b50600386066001811461276157600281146127715761277c565b613d3d60f01b600283035261277c565b603d60f81b60018303525b508484525050819450505050505b919050565b61282b848484846040516024016127a99493929190613a5c565b6040516020818303038152906040527fd5cf17d0000000000000000000000000000000000000000000000000000000007bffffffffffffffffffffffffffffffffffffffffffffffffffffffff19166020820180517bffffffffffffffffffffffffffffffffffffffffffffffffffffffff8381831617835250505050612998565b50505050565b6128c98282604051602401612847929190613b10565b6040516020818303038152906040527f9710a9d0000000000000000000000000000000000000000000000000000000007bffffffffffffffffffffffffffffffffffffffffffffffffffffffff19166020820180517bffffffffffffffffffffffffffffffffffffffffffffffffffffffff8381831617835250505050612998565b5050565b600081600001549050919050565b6128f5828260405180602001604052806000815250612bce565b5050565b61299383838360405160240161291193929190613b40565b6040516020818303038152906040527f969cdd03000000000000000000000000000000000000000000000000000000007bffffffffffffffffffffffffffffffffffffffffffffffffffffffff19166020820180517bffffffffffffffffffffffffffffffffffffffffffffffffffffffff8381831617835250505050612998565b505050565b60008151905060006a636f6e736f6c652e6c6f679050602083016000808483855afa5050505050565b60008073ffffffffffffffffffffffffffffffffffffffff166002600084815260200190815260200160002060009054906101000a900473ffffffffffffffffffffffffffffffffffffffff1673ffffffffffffffffffffffffffffffffffffffff1614159050919050565b505050565b505050565b6000612a588473ffffffffffffffffffffffffffffffffffffffff16612c29565b15612bc1578373ffffffffffffffffffffffffffffffffffffffff1663150b7a02612a81611e9e565b8786866040518563ffffffff1660e01b8152600401612aa39493929190613920565b602060405180830381600087803b158015612abd57600080fd5b505af1925050508015612aee57506040513d601f19601f82011682018060405250810190612aeb91906131cf565b60015b612b71573d8060008114612b1e576040519150601f19603f3d011682016040523d82523d6000602084013e612b23565b606091505b50600081511415612b69576040517f08c379a0000000000000000000000000000000000000000000000000000000008152600401612b6090613b7e565b60405180910390fd5b805181602001fd5b63150b7a0260e01b7bffffffffffffffffffffffffffffffffffffffffffffffffffffffff1916817bffffffffffffffffffffffffffffffffffffffffffffffffffffffff191614915050612bc6565b600190505b949350505050565b612bd88383612c4c565b612be56000848484612a37565b612c24576040517f08c379a0000000000000000000000000000000000000000000000000000000008152600401612c1b90613b7e565b60405180910390fd5b505050565b6000808273ffffffffffffffffffffffffffffffffffffffff163b119050919050565b600073ffffffffffffffffffffffffffffffffffffffff168273ffffffffffffffffffffffffffffffffffffffff161415612cbc576040517f08c379a0000000000000000000000000000000000000000000000000000000008152600401612cb390613c7e565b60405180910390fd5b612cc5816129c1565b15612d05576040517f08c379a0000000000000000000000000000000000000000000000000000000008152600401612cfc90613bbe565b60405180910390fd5b612d1160008383612a2d565b6001600360008473ffffffffffffffffffffffffffffffffffffffff1673ffffffffffffffffffffffffffffffffffffffff1681526020019081526020016000206000828254612d619190613ef8565b92505081905550816002600083815260200190815260200160002060006101000a81548173ffffffffffffffffffffffffffffffffffffffff021916908373ffffffffffffffffffffffffffffffffffffffff160217905550808273ffffffffffffffffffffffffffffffffffffffff16600073ffffffffffffffffffffffffffffffffffffffff167fddf252ad1be2c89b69c2b068fc378daa952ba7f163c4a11628f55a4df523b3ef60405160405180910390a4612e2260008383612a32565b5050565b6040518060a0016040528060608152602001606081526020016000815260200160008152602001600081525090565b6040518060c001604052806000815260200160608152602001606081526020016000815260200160008152602001600081525090565b828054612e97906140c3565b90600052602060002090601f016020900481019282612eb95760008555612f00565b82601f10612ed257805160ff1916838001178555612f00565b82800160010185558215612f00579182015b82811115612eff578251825591602001919060010190612ee4565b5b509050612f0d9190612f11565b5090565b5b80821115612f2a576000816000905550600101612f12565b5090565b6000612f41612f3c84613e3a565b613e15565b905082815260208101848484011115612f5957600080fd5b612f64848285614081565b509392505050565b600081359050612f7b816147b8565b92915050565b600081359050612f90816147cf565b92915050565b600081359050612fa5816147e6565b92915050565b600081519050612fba816147e6565b92915050565b600082601f830112612fd157600080fd5b8135612fe1848260208601612f2e565b91505092915050565b600081359050612ff9816147fd565b92915050565b60006020828403121561301157600080fd5b600061301f84828501612f6c565b91505092915050565b6000806040838503121561303b57600080fd5b600061304985828601612f6c565b925050602061305a85828601612f6c565b9150509250929050565b60008060006060848603121561307957600080fd5b600061308786828701612f6c565b935050602061309886828701612f6c565b92505060406130a986828701612fea565b9150509250925092565b600080600080608085870312156130c957600080fd5b60006130d787828801612f6c565b94505060206130e887828801612f6c565b93505060406130f987828801612fea565b925050606085013567ffffffffffffffff81111561311657600080fd5b61312287828801612fc0565b91505092959194509250565b6000806040838503121561314157600080fd5b600061314f85828601612f6c565b925050602061316085828601612f81565b9150509250929050565b6000806040838503121561317d57600080fd5b600061318b85828601612f6c565b925050602061319c85828601612fea565b9150509250929050565b6000602082840312156131b857600080fd5b60006131c684828501612f96565b91505092915050565b6000602082840312156131e157600080fd5b60006131ef84828501612fab565b91505092915050565b60006020828403121561320a57600080fd5b600061321884828501612fea565b91505092915050565b600061322d8383613700565b905092915050565b61323e8161400d565b82525050565b600061324f82613e7b565b6132598185613ea9565b93508360208202850161326b85613e6b565b8060005b858110156132a757848403895281516132888582613221565b945061329383613e9c565b925060208a0199505060018101905061326f565b50829750879550505050505092915050565b6132c28161401f565b82525050565b60006132d382613e86565b6132dd8185613eba565b93506132ed818560208601614090565b6132f68161425c565b840191505092915050565b600061330c82613e91565b6133168185613ecb565b9350613326818560208601614090565b61332f8161425c565b840191505092915050565b600061334582613e91565b61334f8185613edc565b935061335f818560208601614090565b6133688161425c565b840191505092915050565b600061337e82613e91565b6133888185613eed565b9350613398818560208601614090565b80840191505092915050565b60006133b1600b83613eed565b91506133bc8261426d565b600b82019050919050565b60006133d4603283613edc565b91506133df82614296565b604082019050919050565b60006133f7602583613edc565b9150613402826142e5565b604082019050919050565b600061341a601c83613edc565b915061342582614334565b602082019050919050565b600061343d600e83613eed565b91506134488261435d565b600e82019050919050565b6000613460602483613edc565b915061346b82614386565b604082019050919050565b6000613483601983613edc565b915061348e826143d5565b602082019050919050565b60006134a6602983613edc565b91506134b1826143fe565b604082019050919050565b60006134c9603483613edc565b91506134d48261444d565b604082019050919050565b60006134ec600483613eed565b91506134f78261449c565b600482019050919050565b600061350f603e83613edc565b915061351a826144c5565b604082019050919050565b6000613532602083613edc565b915061353d82614514565b602082019050919050565b6000613555602e83613edc565b91506135608261453d565b604082019050919050565b6000613578600a83613eed565b91506135838261458c565b600a82019050919050565b600061359b601883613edc565b91506135a6826145b5565b602082019050919050565b60006135be602183613edc565b91506135c9826145de565b604082019050919050565b60006135e1601d83613eed565b91506135ec8261462d565b601d82019050919050565b6000613604604383613eed565b915061360f82614656565b604382019050919050565b6000613627603d83613eed565b9150613632826146cb565b603d82019050919050565b600061364a602d83613eed565b91506136558261471a565b602d82019050919050565b600061366d602e83613edc565b915061367882614769565b604082019050919050565b600060a08301600083015184820360008601526136a08282613301565b915050602083015184820360208601526136ba8282613301565b91505060408301516136cf6040860182613820565b5060608301516136e26060860182613820565b5060808301516136f56080860182613820565b508091505092915050565b600060c0830160008301516137186000860182613820565b50602083015184820360208601526137308282613301565b9150506040830151848203604086015261374a8282613301565b915050606083015161375f6060860182613820565b5060808301516137726080860182613820565b5060a083015161378560a0860182613820565b508091505092915050565b600060c0830160008301516137a86000860182613820565b50602083015184820360208601526137c08282613301565b915050604083015184820360408601526137da8282613301565b91505060608301516137ef6060860182613820565b5060808301516138026080860182613820565b5060a083015161381560a0860182613820565b508091505092915050565b61382981614077565b82525050565b61383881614077565b82525050565b60006138498261356b565b91506138558289613373565b9150613860826133a4565b915061386c8288613373565b9150613877826135f7565b91506138838287613373565b915061388e8261361a565b915061389a8286613373565b91506138a582613430565b91506138b18285613373565b91506138bc8261363d565b91506138c88284613373565b91506138d3826134df565b9150819050979650505050505050565b60006138ee826135d4565b91506138fa8284613373565b915081905092915050565b600060208201905061391a6000830184613235565b92915050565b60006080820190506139356000830187613235565b6139426020830186613235565b61394f604083018561382f565b818103606083015261396181846132c8565b905095945050505050565b60006060820190506139816000830186613235565b61398e602083018561382f565b61399b604083018461382f565b949350505050565b600060208201905081810360008301526139bd8184613244565b905092915050565b60006020820190506139da60008301846132b9565b92915050565b600060208201905081810360008301526139fa818461333a565b905092915050565b60006080820190508181036000830152613a1c818761333a565b90508181036020830152613a30818661333a565b9050613a3f604083018561382f565b8181036060830152613a51818461333a565b905095945050505050565b60006080820190508181036000830152613a76818761333a565b90508181036020830152613a8a818661333a565b9050613a99604083018561382f565b613aa6606083018461382f565b95945050505050565b600060a0820190508181036000830152613ac9818861333a565b90508181036020830152613add818761333a565b9050613aec604083018661382f565b613af9606083018561382f565b613b06608083018461382f565b9695505050505050565b60006040820190508181036000830152613b2a818561333a565b9050613b39602083018461382f565b9392505050565b60006060820190508181036000830152613b5a818661333a565b9050613b69602083018561382f565b613b76604083018461382f565b949350505050565b60006020820190508181036000830152613b97816133c7565b9050919050565b60006020820190508181036000830152613bb7816133ea565b9050919050565b60006020820190508181036000830152613bd78161340d565b9050919050565b60006020820190508181036000830152613bf781613453565b9050919050565b60006020820190508181036000830152613c1781613476565b9050919050565b60006020820190508181036000830152613c3781613499565b9050919050565b60006020820190508181036000830152613c57816134bc565b9050919050565b60006020820190508181036000830152613c7781613502565b9050919050565b60006020820190508181036000830152613c9781613525565b9050919050565b60006020820190508181036000830152613cb781613548565b9050919050565b60006020820190508181036000830152613cd78161358e565b9050919050565b60006020820190508181036000830152613cf7816135b1565b9050919050565b60006020820190508181036000830152613d1781613660565b9050919050565b60006020820190508181036000830152613d388184613683565b905092915050565b60006020820190508181036000830152613d5a8184613790565b905092915050565b6000602082019050613d77600083018461382f565b92915050565b600060c082019050613d92600083018961382f565b8181036020830152613da4818861333a565b90508181036040830152613db8818761333a565b9050613dc7606083018661382f565b613dd4608083018561382f565b613de160a083018461382f565b979650505050505050565b6000604082019050613e01600083018561382f565b613e0e602083018461382f565b9392505050565b6000613e1f613e30565b9050613e2b82826140f5565b919050565b6000604051905090565b600067ffffffffffffffff821115613e5557613e5461422d565b5b613e5e8261425c565b9050602081019050919050565b6000819050602082019050919050565b600081519050919050565b600081519050919050565b600081519050919050565b6000602082019050919050565b600082825260208201905092915050565b600082825260208201905092915050565b600082825260208201905092915050565b600082825260208201905092915050565b600081905092915050565b6000613f0382614077565b9150613f0e83614077565b9250827fffffffffffffffffffffffffffffffffffffffffffffffffffffffffffffffff03821115613f4357613f426141a0565b5b828201905092915050565b6000613f5982614077565b9150613f6483614077565b925082613f7457613f736141cf565b5b828204905092915050565b6000613f8a82614077565b9150613f9583614077565b9250817fffffffffffffffffffffffffffffffffffffffffffffffffffffffffffffffff0483118215151615613fce57613fcd6141a0565b5b828202905092915050565b6000613fe482614077565b9150613fef83614077565b925082821015614002576140016141a0565b5b828203905092915050565b600061401882614057565b9050919050565b60008115159050919050565b60007fffffffff0000000000000000000000000000000000000000000000000000000082169050919050565b600073ffffffffffffffffffffffffffffffffffffffff82169050919050565b6000819050919050565b82818337600083830152505050565b60005b838110156140ae578082015181840152602081019050614093565b838111156140bd576000848401525b50505050565b600060028204905060018216806140db57607f821691505b602082108114156140ef576140ee6141fe565b5b50919050565b6140fe8261425c565b810181811067ffffffffffffffff8211171561411d5761411c61422d565b5b80604052505050565b600061413182614077565b91507fffffffffffffffffffffffffffffffffffffffffffffffffffffffffffffffff821415614164576141636141a0565b5b600182019050919050565b600061417a82614077565b915061418583614077565b925082614195576141946141cf565b5b828206905092915050565b7f4e487b7100000000000000000000000000000000000000000000000000000000600052601160045260246000fd5b7f4e487b7100000000000000000000000000000000000000000000000000000000600052601260045260246000fd5b7f4e487b7100000000000000000000000000000000000000000000000000000000600052602260045260246000fd5b7f4e487b7100000000000000000000000000000000000000000000000000000000600052604160045260246000fd5b6000601f19601f8301169050919050565b7f202d2d204e465420233a20000000000000000000000000000000000000000000600082015250565b7f4552433732313a207472616e7366657220746f206e6f6e20455243373231526560008201527f63656976657220696d706c656d656e7465720000000000000000000000000000602082015250565b7f4552433732313a207472616e736665722066726f6d20696e636f72726563742060008201527f6f776e6572000000000000000000000000000000000000000000000000000000602082015250565b7f4552433732313a20746f6b656e20616c7265616479206d696e74656400000000600082015250565b7f2c20226d61785f76616c7565223a000000000000000000000000000000000000600082015250565b7f4552433732313a207472616e7366657220746f20746865207a65726f2061646460008201527f7265737300000000000000000000000000000000000000000000000000000000602082015250565b7f4552433732313a20617070726f766520746f2063616c6c657200000000000000600082015250565b7f4552433732313a2061646472657373207a65726f206973206e6f74206120766160008201527f6c6964206f776e65720000000000000000000000000000000000000000000000602082015250565b7f4572726f723a20706572736f6e6167656d20707265636973612074657220485060008201527f207061726120617461636172206f20626f73732e000000000000000000000000602082015250565b7f7d205d7d00000000000000000000000000000000000000000000000000000000600082015250565b7f4552433732313a20617070726f76652063616c6c6572206973206e6f7420746f60008201527f6b656e206f776e6572206e6f7220617070726f76656420666f7220616c6c0000602082015250565b7f4552433732313a206d696e7420746f20746865207a65726f2061646472657373600082015250565b7f4572726f723a20626f737320707265636973612074657220485020706172612060008201527f617461636172206f20626f73732e000000000000000000000000000000000000602082015250565b7f7b226e616d65223a202200000000000000000000000000000000000000000000600082015250565b7f4552433732313a20696e76616c696420746f6b656e2049440000000000000000600082015250565b7f4552433732313a20617070726f76616c20746f2063757272656e74206f776e6560008201527f7200000000000000000000000000000000000000000000000000000000000000602082015250565b7f646174613a6170706c69636174696f6e2f6a736f6e3b6261736536342c000000600082015250565b7f222c20226465736372697074696f6e223a202245737461204e4654206461206160008201527f636573736f20616f206d6575206a6f676f204e465421222c2022696d6167652260208201527f3a20220000000000000000000000000000000000000000000000000000000000604082015250565b7f222c202261747472696275746573223a205b207b202274726169745f7479706560008201527f223a20224865616c746820506f696e7473222c202276616c7565223a20000000602082015250565b7f7d2c207b202274726169745f74797065223a202241747461636b2044616d616760008201527f65222c202276616c7565223a2000000000000000000000000000000000000000602082015250565b7f4552433732313a2063616c6c6572206973206e6f7420746f6b656e206f776e6560008201527f72206e6f7220617070726f766564000000000000000000000000000000000000602082015250565b6147c18161400d565b81146147cc57600080fd5b50565b6147d88161401f565b81146147e357600080fd5b50565b6147ef8161402b565b81146147fa57600080fd5b50565b61480681614077565b811461481157600080fd5b5056fe426f737320617461636f75206f206a6f6761646f722e204a6f6761646f72206669636f7520636f6d2068703a2025730a4a6f6761646f7220617461636f75206f20626f73732e20426f7373206669636f7520636f6d2048503a2025734142434445464748494a4b4c4d4e4f505152535455565758595a6162636465666768696a6b6c6d6e6f707172737475767778797a303132333435363738392b2f0a4a6f6761646f7220636f6d20706572736f6e6167656d20257320697261206174616361722e2054656d202573206465204850206520257320646520506f646572206465204174617175654d696e746f75204e465420632f20746f6b656e4964202573206520636861726163746572496e646578202573a2646970667358221220e6c1feeb7dcf240b386b5cd837f035afdbee1fb700a80a004170c57e411c497c64736f6c63430008040033506572736f6e6167656d20696e696369616c697a61646f3a20257320636f6d2025732064652048502c20696d67202573426f737320696e696369616c697a61646f20636f6d207375636573736f20257320636f6d2048502025732c20696d67202573",
  "linkReferences": {},
  "deployedLinkReferences": {}
}